:020000041004E6
:10000000006000202D1404101B1904101D19041089
:10001000AA5555AA45554C420000000000000000BA
:100020000000000000000000000000001F19041084
:1000300000000000000000009112041021190410BB
:1000400029190410931204100000000000000000A1
:100050002B190410951204102D190410A11204106C
:100060000000000000000000000000000000000090
:1000700000000000A3120410A5120410A71204101F
:100080000000000097120410991204109B12041033
:100090009D1204109F1204108D1204108F12041070
:1000A0000000000000000000000000000000000050
:1000B0000000000000000000000000000000000040
:1000C000EFF31482EFF30981002080F31488BFF36B
:1000D0006F8FF0B543464C4655465E466746F8B4CA
:1000E000164CEFF30883236006B4154C2068154CBA
:1000F0002060154C2068154C2060154C2068154C6C
:100100002060154C276800202060BFF34F8F30BF60
:1001100027600A4C246884F3088882B003BCF8BCCA
:100120009846A146AA46B346BC46F0BC04BC80F340
:10013000098881F31488BFF36F8F104708000020EF
:1001400004ED00E0B417002024ED00E0A817002023
:1001500000E200E0B817002008002040012051E232
:100160001EFF2F013600003A010050E12200009AE4
:10017000020011E12300000A0E0211E38111A00127
:100180000830A0030130A013010251E300005131F7
:100190000112A0310332A031FAFFFF3A020151E30C
:1001A000000051318110A0318330A031FAFFFF3AB5
:1001B0000020A0E3010050E1010040200320822143
:1001C000A10050E1A1004020A3208221210150E1A3
:1001D0002101402023218221A10150E1A1014020E1
:1001E000A3218221000050E32332B0112112A0117B
:1001F000EFFFFF1A0200A0E11EFF2FE10100A003A4
:100200000000A0131EFF2FE1010851E32118A021D7
:100210001020A0230020A033010C51E32114A021C1
:1002200008208222100051E32112A0210420822202
:10023000040051E303208282A12082903002A0E1D9
:100240001EFF2FE11FFF2FE10000A0E1000050E39F
:100250000000E013D34200EA000051E3F8FFFF0A78
:1002600003402DE9BCFFFFEB0640BDE8920003E030
:10027000031041E01EFF2FE17047C046437802782B
:100280001B021A438378C0781B04134300061843EB
:100290007047C046030A4B70030C8B70030E087046
:1002A000CB70704703005A780078120202439878A6
:1002B00000040243D878000610435A7919791202D3
:1002C0000A43997909040A43D97909061143704709
:1002D000030A5370030C9370030ED3700B0A53710F
:1002E0000B0C93710B0E10701171D3717047C046D7
:1002F000024A1368013313607047C04600030020B0
:100300000E4AD3691B061B0F4370D9B2D3690C4A3E
:100310001B071B0F83700B4B1B68436093420BD171
:1003200002230370002901D101234370064B9B8AED
:1003300001339B00836070470123F2E70000904087
:1003400041A000022800904000001040F0B50700D6
:1003500085B001AC0E0020001500FFF7D1FF237817
:100360003B7063783370A3782B7005B0F0BD10B587
:1003700001F0F7FA10BD10B501F012FB10BD10B579
:1003800001F0DEFA10BD0000F0B51B4C1500A544CD
:100390000E910400EFF31083069372B60022174B00
:1003A0001A7010F03FFA0600200001F0A9FA331C81
:1003B000864200D9031CDAB2A24200D9231CDBB268
:1003C0000F4A990000938B5801338B50009B002BF0
:1003D00007D1069B83F310880020A7239B009D4430
:1003E000F0BD009B012B0FD10021064B1A7A197228
:1003F000D2B230BF1A72ECE764FDFFFF0C000020A0
:10040000040300200000704038226B46E04C9B182B
:1004100025701B787BA82371FFF772FF237ADD49D3
:10042000DBB20A938B88DC4A9BB2109313685A9113
:1004300011930023089405927EA91A000598C032F2
:10044000920080589A0001335050082BF5D1D34CBC
:10045000D3482368D3491293036AD34F139380235D
:10046000DB051A68D14E14925A68D14D15929A68DC
:100470001692DA6817921A6918925A6919929A694B
:100480001A92DA690B92DA6A1B921A6B1C925B6CF5
:10049000C84A1D93CB681E930B7FDBB21F938B8CD6
:1004A0009BB22093C44B1B78DBB22193C34B1B78C8
:1004B000DBB222930B6B2393C14B1B78DBB22493EB
:1004C0000B8F9BB22593BF4B1B78DBB22693BE4BA1
:1004D0009C461B78DBB227933B78DBB228933378BA
:1004E000DBB229932B78DBB22A93B84B1B78DBB2B3
:1004F0002B9313682C9353682D93137CDBB22E93AC
:10050000137DDBB22F93B24BDB7FDBB23093138DC5
:100510009BB23193D36A3293138E0491A6499BB256
:100520005C91A64933935D91A54900235E91A5494D
:1005300001925F916146A64A6091A4495B946197DC
:10054000629663950F906491659267AF69AE6BADEB
:100550006DACA04A9A1892041168D951516899510A
:10056000918BE950118CE150908C6FA9C850108D7F
:1005700071A9C850D06A73A9585011004C3108882D
:1005800075A9C850106D77A95850916D79AA9950E6
:100590000433082BDDD1B0231B061B688E4C34932B
:1005A00063688E4A3593A3688D4D3693238A9BB238
:1005B0003793A38A9BB23893A3693993237FDBB225
:1005C0003A93238E9BB23B93636B3C93A36B3D9317
:1005D000E36B3E93236C3F93636C4093A36C419316
:1005E00093889BB2429313899BB24393137CDBB2F3
:1005F0004493137DDBB24593138B9BB24693137FD9
:10060000DBB24793774B998889B24891198989B2AF
:100610004991197CC9B24A91197DC9B24B91198B84
:1006200089B24C91197FC9B24D916F4908684E90BB
:1006300048684F9028685090287AC0B25190C020E6
:10064000000128580995039302920D000023002809
:1006500000D1664B8EAA0D939446002386A896A9D6
:10066000052266465A43624FD21957689F51176850
:100670001F5097685F50D7689EAA9F500433202B65
:10068000EED18123DB055A6852921A7BD2B2539283
:100690005A8B92B254921A8B92B255925A6A5692CF
:1006A0009A6A1B8857929BB25893C0231B069B687B
:1006B0005993009B032B06D19022C023D205516889
:1006C0009B050B4353604B4B4B4A1B680793503BB6
:1006D0000C9300230C99C9180968D1500433502B8E
:1006E000F8D1464B079A1A607BAA537892781B017F
:1006F0001343112B04DD0020414B186000F01EFE57
:100700009023DB055A683F4B1A60089B1E791A78C4
:100710008023DB051B685B0A53409E4300D058E6EC
:10072000012000F0BDFCFFF7CBFC300000F0B8FC6E
:10073000354B1B78002B00D0A2E034494B685B0698
:1007400076D4334B33484A6800685C6A844216D1D9
:10075000314849680068884204D0059942400968D8
:1007600011420CD12D4A596812685140C90006D473
:100770005B685A4053015BD52B689B0758D5284AC4
:10078000284813681B09D91C814269D84CE0C0462F
:10079000000020400000104000E100E020ED00E0FB
:1007A000000090400000304054003040580030407D
:1007B0005C00304000004040280030402C003040B9
:1007C000340030404800304050003040600030403D
:1007D00005004040281000000000F0400000D0401C
:1007E000000070400000E04010E000E051E5CC1A4D
:1007F000080000A000000410581700205417002023
:1008000014000020180000200C000020FCE100E093
:1008100000ED00E0A8170020B8170020B417002052
:1008200010000048FFFF0F0013681B099942FBD816
:100830007BAA537892781B011343112B05DD01200D
:1008400000F07CFD0A4A0B4B1A60009B032B00D082
:10085000BFE59022D205536807490B405360B8E5C5
:1008600006495B18116809099942FBD1E0E7C046C7
:10087000CCBCECFC14000020FFFFFFCF0400F0FF15
:100880000122E34F3A83E34ABE813E610C9B9159BA
:100890009B1904361960502EF8D1079ADE4B40217F
:1008A0001A606A4652185A9B12887EA89A80059B45
:1008B000119A1A6000239A0011581A00059EC0323E
:1008C00092000133B150082BF5D15B9B129A7C2129
:1008D0001A600F9B139A6BAE1A628023149ADB0581
:1008E0001A60159A5A60169A9A60179ADA601A9ADC
:1008F0009A61199A5A61189A1A610B9A9A620B9A1C
:10090000DA611B9ADA621C9A1A631D9A5A64049B74
:100910001E9ADA606A465218049B127804311A77DC
:100920006A465218049B128804319A846A46521807
:100930005C9B127804311A706A4652185D9B1278DB
:1009400008311A70049B239A1A636A4652185E9BF8
:10095000127804311A706A465218049B12880431C6
:100960001A876A4652185F9B127804311A706A46D9
:100970005218609B127804311A706A465218619BB3
:10098000127804311A706A465218629B1278043148
:100990001A706A465218639B127804311A706A46BC
:1009A0005218649B12780C311A70019B2C9A1A60B1
:1009B000019B2D9A5A606A465218019B12780431A5
:1009C0001A746A465218019B127804311A756A46E5
:1009D0005218659B12780431DA776A465218019BE7
:1009E000128808311A85019B329ADA626A465218D7
:1009F000019B12881A86002367AA94466DAA049266
:100A000061460C20854A59589A189204116066A9CB
:100A10000918C95851600191995B91830499595AF9
:100A200011846FA9595889B2918471A9595889B212
:100A3000118573A95958D16275A9595888B2110006
:100A40004C31088077A95958116579A95958043350
:100A50009165082BD4D1B023349A1B061A604F9BA2
:100A60004E9A6B600023AB602A60359ADC2162608D
:100A7000369A8420A2606A46521812880431228273
:100A80006A46521812880831A282399A4000A2613F
:100A90006A4652181278043122773C9A052662631E
:100AA0003D9A8EADA2633E9AE2633F9A2264409AD9
:100AB0006264419AA2646A4652186946128809180B
:100AC0002286029A09880430918069460918029AA0
:100AD00009880430118169460918029A097804309E
:100AE000117469460918029A09788E2411754021FB
:100AF000469A02988A430283684664000019029A63
:100B000000780434107768460019039A008804348A
:100B1000908068460019039A008804341081684662
:100B20000019039A00780434107468460019039A77
:100B3000007886AC10754C9A9A208A43039940003D
:100B40000A8369460918039A097810301177099ABF
:100B50005099116069460918099A09781172C022E2
:100B60000D9809991201885096A832005A432C49D1
:100B700052185959516019591160195891609EA91C
:100B800059580433D160202BEFD18123529ADB05D1
:100B9000A6215A606A4649005218127804311A7325
:100BA0006A465218128804315A836A4652181288CB
:100BB0000C311A83569A5A62579A9A626A465218A8
:100BC00012881A80C023599A1B069A600F9B1B7AC1
:100BD000002B48D13B89082B45D93B89812B42D832
:100BE0000E9B002B3FD009223B891340934204D136
:100BF0008023DB05DB699B0532D411223B8913403E
:100C000093420FD18023DB05DB695B0528D409E023
:100C1000000010485817002054170020281000002A
:100C2000080000A021223B891340934204D1802375
:100C3000DB05DB691B0513D441223B89134093423A
:100C400004D18023DB05DB69DB0409D481223B89E5
:100C50001340934207D18023DB05DB699B0402D557
:100C60000122214B5A60009B032B05D19022D20513
:100C700053681E490B4053606A4628215218089B4E
:100C800012781A72009B032B2BD10020273900F019
:100C900013FC0A9BDB0701D4FFF79BFB00F0D6F89F
:100CA00066ABD87003331B780B2B15D0104B1B8809
:100CB0001B0711D590220F4BD20511691B685B1AD7
:100CC0001B021B12D9175B184B40202B04DC136945
:100CD0002D3311698B42FCD21522074B1A70FFF796
:100CE00078FB00210800D2E7FCE100E0FFFFFFCF26
:100CF000C0000020180000200000C040024A138AF3
:100D0000DB07FCD57047C04600001040084B10B50B
:100D10001A68084B9A4209D13F22074B40061A81B4
:100D2000000C2E3A98611A80FFF7E8FF10BDC0460C
:100D300014000020CCBCECFC00001040084B10B5A7
:100D40001A68084B9A4209D13F22074B80081A8142
:100D50000C3A986119641A80FFF7D0FF10BDC046A5
:100D600014000020CCBCECFC000010400179F0B570
:100D7000046800292ED18022D2055368A343536012
:100D800000230F27026814000125DC402C420FD0FD
:100D9000DCB2072B27D83D0080249E00B540E40537
:100DA000E46AAC430D00B5402C438025ED05EC62B0
:100DB00001331A2BE7D180234179DB05012925D1A5
:100DC000D9681143D9608179012922D199680A43F0
:100DD0009A60F0BD0629D3D18022D2055368002144
:100DE00023435360CCE7083C072CE1D80B4D80240B
:100DF0005E193D00B600B540E405246BAC430D0020
:100E0000B5402C438025ED052C63D1E7D96891438B
:100E1000D8E7996891439960DBE7C046F8FFFF3F48
:100E2000C02380211B061A680A431A601A688A4385
:100E30001A607047044B1A6A012902D110431862E4
:100E4000704782431A62FBE700009040244B1A7AF5
:100E5000244BD2B21B899BB2002A36D11A00093A20
:100E6000782A19D809211A0006200A408A422BD074
:100E7000112201301A40112A26D0212201301A40B5
:100E8000212A21D0412208001A40412A1CD0812267
:100E900001301A40812A17D002221900FF32114076
:100EA0000B20914210D019000F4A0130114091429D
:100EB0000AD01A0007380240824205D00238184092
:100EC000033843425841800070470120022AFBD07A
:100ED0000018042AF8D00020082AF5D10330F3E7DF
:100EE000000090400000104801040000054B012262
:100EF000196B002802D00A431A63704791431963A3
:100F0000FBE7C04600003040F8B54A4C0500236BB3
:100F100001681B0700D56DE009014748FFF71EF97E
:100F2000C3099AB2A284454ADB0101301340C01ABA
:100F3000400880B23F2802D93F233F38184003279A
:100F400060263F4BC0B218703E4B2A7918783A4061
:100F50005201B0431043187001206979227F394053
:100F60004901B2430A432277AA7919780240BA406C
:100F70000730814311431970217F81430A4322774F
:100F8000EA79002A38D102211A788A431A70227F1E
:100F90008A43012022772A7A216B1600C2402A4F09
:100FA00006407602394031432163216B274E0240CF
:100FB000314012020A432263697A226B0E00C1405B
:100FC000234F06403A40B60332432263226B214E40
:100FD00001403240C90311432163AA7A19780240C3
:100FE0000F301201814311431970237F83431A4349
:100FF0002277F8BDC90090E7022A0CD104201978A5
:1010000011431970197881431970217F0A4322779F
:10101000227F8243BDE702211A780A431A70042214
:10102000187810431870207F01432177217F0A43ED
:10103000AFE7C046000030400000127A80FF7F001A
:10104000280030402C003040FFFDFFFFFFFEFFFF77
:10105000FFBFFFFFFF7FFFFF024BC005C00D1880E1
:101060007047C04600003040054B002805DA5B6839
:101070001840431E9841C0B270471B8BF8E7C0462A
:10108000000030400722024038200449D2000B788B
:1010900083431800104308707047C0463400304046
:1010A000054B04221969002802D00A431A617047CF
:1010B00091431961FBE7C04600ED00E010B5040064
:1010C0002020FFF7D1FF0128FAD0A0B2FFF7C4FF1C
:1010D00010BD000070B5012186B006000920FFF7A1
:1010E000A9FE00F0CDF81C4B01388000C358002445
:1010F000019300F0C5F8194B0138800001ADC358C9
:1011000028002B71AC716C71FFF730FE00F0B8F85D
:10111000134B01388000C358019300F0B1F8114B14
:1011200001388000C35828002B71FFF71FFE0125EE
:10113000032303A80371437103728471C471447261
:1011400085720396FFF7E0FE2000FFF79BFF280063
:10115000FFF7CCFE06B070BDFC0D0510F80D0510B4
:10116000F40D0510F00D051010B58020FFF77CFF81
:1011700043425841C0B210BD10B50820FFF774FFBC
:10118000013843425841C0B210BD000001000A4A74
:101190000A4810B51368046801209C4209D0084829
:1011A000C05C0133087080210020C9008B4201D04F
:1011B000136010BD1060FCE7180700201407002022
:1011C000140300200B4A10B513680B49002B00D103
:1011D000116080241368640118180919884205D920
:1011E0000C220120054B40421A6010BD106018000F
:1011F000FBE7C0461C1700201C070020BC1700207E
:1012000001204042704780239B0100204B607047C3
:10121000012070470020704770B50E0015000C00CB
:10122000A31B9D4201DC280070BD2078FFF746FF1C
:101230000134F5E770B50E0015000024AC4208D269
:101240003019FFF7A3FF002801D10134F6E7002C85
:10125000F4D0200070BD10B500F083FB10BD10B5B8
:1012600000F07FFB10BD10B50A00002100F098FBD4
:1012700010BD00000122014B1A707047201700209A
:10128000014B1878C0B27047201700207047704794
:101290007047704770477047704770477047704796
:1012A0007047704770477047002210B5104B995C2B
:1012B000C9B2002917D11C2A14DC02202124985419
:1012C000501C1C54901C193C1C54D01C19549B18C5
:1012D000802290219BB252021343C905CB60CB6898
:1012E0001342FCD110BD995C01315218D2B2DEE735
:1012F00021170020002330B50E4AD15CC9B2002965
:1013000013D11C2B08DC02243525D4545C1C155544
:101310009C1C03331055D1540222074B1A703332F0
:101320005A7000229870DA7030BDD15C01315B18C0
:10133000DBB2E2E721170020AC17002010B5104BFC
:1013400000280AD0802290219BB252021343C90583
:10135000CB60CB681342FCD110BD042198789A78F9
:101360009CB28A439A708022902152021443C9058C
:10137000C0B2CC60CC681442FCD19870ECE7C04697
:10138000AC170020012330B5234A0324117A85B01D
:101390000B4313720022214B1A60FFF757FD6B4677
:1013A000033318701A78002A03D1013CE4B2002CF0
:1013B000F3D11A78052A2BD91B780B2B10D001AC4E
:1013C0002000FEF79DFF6278A37812011A43144BA8
:1013D0001B681B070AD4112A02DD0120FFF7AEFFAC
:1013E0000122104B1A70FEF794FEFEE790250E4C7A
:1013F000ED0528692368283B1B1A1B02002BEFDD33
:10140000112A02DD0120FFF799FF23686B60E7E7EF
:10141000012005B030BDC04600002040140000206F
:10142000C00000200C0000201800002070B5FFF75D
:10143000A9FF012817D1002314481549154C1A1883
:101440008A4216D3002314481449154C1A188A42AC
:1014500013D30021134B144A934212D30021134B90
:10146000134A93420FD3134B83F3088800F0D6F945
:1014700070BDE55804331560E1E7E55804331560A5
:10148000E4E702C3E8E702C3EBE7C046C017002069
:101490007418002088120510080000203400002075
:1014A0005C120510C0000020CC020020CC020020FD
:1014B000C01700200060002070B58AB003AC0500A2
:1014C0000E0019224349200000F04BFA6846FEF74F
:1014D00017FF002D60D044233F4AA373117A433B8A
:1014E0000B4313724C23E3722C3B237292336374CD
:1014F000573B2375394B3A4A1B68190C914208D166
:101500007020E17D1B018143E175E17D03400B43C8
:10151000E375344B1B68190C914208D13020617976
:101520001B0181436171617903400B4363712E4B51
:101530001B68190C914207D10321E27D0B408A43BD
:10154000E275E27D1343E3750422E37A694693432F
:10155000E3726B465B78897893400B43112B06DD71
:10156000E37D1A43E275E07DC0B2FFF7C3FE80233E
:1015700090222404240C5B021C43D205D460D16861
:101580001942FCD16B466A465B7892781B01134383
:10159000112B01DDFFF788FE144B1A8B002AFCD0BB
:1015A00001221A8316329A8100221A61964207D0CC
:1015B00090231021DB0518691A6942400A42FBD0CA
:1015C000002D02D015220A4B1A700A4A0A4B1A60E3
:1015D0000AB070BDB80D051000002040E8070010EB
:1015E00055AA0000E4070010B007001000001048E2
:1015F0000000C040CCBCECFC140000200822C0213C
:10160000F8B53F4B3F4D9A803F4A0904136AFF20CB
:101610002B400B43C0211362136A09061B021B0AED
:101620000B431362C02292009446384B64469A588A
:10163000374E82433F38024360461A501A58C02042
:101640003240000202431A51C122FF2792009C58E7
:10165000BC433F3F3C439C509C583F37344004437D
:101660009C509C582C409C509C582402240A0C43AB
:101670009C500832944664469A58324002431A51AC
:101680001A59C0242A402404224364461A511A5984
:101690001202120A0A431A51C42292009446644666
:1016A0009A58324002431A511A59C0242A4024043D
:1016B000224364461A511A591202120A0A431A5155
:1016C000C52292009C58BC432700C0242743C02455
:1016D0009F509F5824043E403043985098580540EE
:1016E0002C439C5098580002000A01439950012154
:1016F0000800FFF7E1FE074A074B1A6262B6F8BD21
:1017000000001040FFFF00FF00ED00E000E100E0FE
:10171000FF00FFFF66000E00000090401FB504218F
:10172000012001F0A8F9011E03D0134800F040F990
:10173000FEE701F09CF9011E15D0104800F038F9C1
:101740000E236B44019303AB00930A2300216B44E7
:101750000822012001F052F9011E08D0084800F0CB
:1017600027F905B000BD074800F09EF9E8E70648F4
:1017700000F09AF9F5E7C046340E0510630E051027
:10178000A20E0510850E0510C30E0510012901D10A
:10179000014B1A607047C04644170020802270B584
:1017A000194C1A4B216892001D68914215D104F022
:1017B00013F90100280004F009F919280CDD144B75
:1017C0001B8ADB0708D54D20FFF7A0FA114A1368E2
:1017D000DB4313600023236070BD04F0FDF80100BB
:1017E000280004F0F3F80128F6DD094B1B8ADB071B
:1017F000F2D52368084A9818064B80001968FFF74D
:101800009DFA23680133E6E74817002044170020BB
:10181000000010400C180020009A010410B590B090
:10182000FFF7ECFEFFF726FDE1204002FFF752FC38
:101830004D20FFF76BFA274801F066F9041E04D02B
:101840000100254800F0B4F8FEE7FFF767FF02202B
:1018500003F036FF1E22214908A800F082F821007B
:10186000200004F03CF8041E11D001001C4800F0D8
:101870009FF81C491C4800F09BF801F001F9FFF7A4
:101880008DFF002203201100FEF77EFDF5E71748CB
:1018900000F00AF9A0220694110005940494039420
:1018A0000294019400942300032001F0BFF8011E6C
:1018B0000F48DCD10F4800F0F7F808A91E2004F00B
:1018C00003F8011E01D00C48D1E70C4800F0ECF8F9
:1018D000CFE7C046000E0510DF0E0510D10D051034
:1018E000100F0510171005101D1005103E0F0510E4
:1018F000670F0510940F0510BC0F0510EC0F0510B5
:1019000010B5FFF731FC002804D1FFF735FC0323A5
:10191000002800D00023180010BD7047FEE7704774
:1019200010B5FEF7E5FC10BD7047704710B504F028
:1019300083FD10BD10B500F01FF810BC01BC0047BE
:1019400030B50024A24201D1002005E0035D651CF2
:101950000C5DA34203D0181B30BC02BC08472C000E
:10196000F0E7002310B59A4202D110BC02BC084730
:10197000CC5CC4540133F6E710B5884202D98B1809
:10198000984208D300239A4207D0CC5CC454013358
:10199000F9E78B5C8354013AFBD210BC02BC0847C8
:1019A00003008218934200D1704719700133F9E7A0
:1019B0000FB40B4B13B51C68002C05D0A369002B8A
:1019C00002D1200000F056FA05AB049AA16820006D
:1019D000019300F037FC16BC08BC04B01847C046A1
:1019E0001018002070B505000E00002804D083698F
:1019F000002B01D100F03EFAAB69AC68002B02D19C
:101A0000280000F037FA254B9C4211D16C68A3895D
:101A10001B0702D52369002B22D12100280000F0EA
:101A2000A9F800281CD00120404270BC02BC084725
:101A30001B4B9C4201D1AC68E9E71A4B9C42E6D1B2
:101A4000EC68E4E7013B0136A360002B04DAA269ED
:101A5000934216DB0A2914D023685A1C226019709D
:101A60003178A3680029EDD1013BA360002B0FDA88
:101A700022000A31280000F023F8431CD3D00A20AA
:101A8000D3E72200280000F01BF8431CE8D1CAE786
:101A90000A2023685A1C22601870C6E774100510CB
:101AA000941005105410051010B5044B010018686F
:101AB000FFF798FF10BC02BC0847C0461018002072
:101AC000F8B505000E001400002804D08369002B2F
:101AD00001D100F0CFF9244B9C422ED16C68A36950
:101AE000A360A3891B0732D52369002B2FD023685D
:101AF00022693706981A63693F0E3E00984205DB5B
:101B00002100280000F040F9002826D1A368013BFD
:101B1000A36023685A1C22601F70636901309842D9
:101B200004D0A389DB071AD50A2E18D1210028007A
:101B300000F02AF9002812D00FE00C4B9C4201D192
:101B4000AC68CCE70A4B9C42C9D1EC68C7E72100DE
:101B5000280000F00FF80028C9D001267642300096
:101B6000F8BC02BC0847C04674100510941005105C
:101B700054100510374B70B51D6806000C00002D81
:101B800005D0AB69002B02D1280000F073F9324B6D
:101B90009C4212D16C680C23E25E13041B0C1907E3
:101BA0002FD4D90613D409230120336037331343CC
:101BB000A381404270BC02BC0847284B9C4201D123
:101BC000AC68E8E7264B9C42E5D1EC68E3E75B07AD
:101BD00013D5616B002908D023004433994202D009
:101BE000300000F055FA002363632422A389934355
:101BF000A38100236360236923600823A289134320
:101C0000A3812369002B0AD1A022A389920013404B
:101C1000803A934203D02100300000F0F3F9012311
:101C2000A289134011D00023A36063695B42A361C2
:101C3000002023698342BDD10C23E25E1306B9D58F
:101C400040231343A3810138B4E7920700D46369AA
:101C5000A360EDE710180020741005109410051013
:101C600054100510F7B58A8905000C00130764D4D9
:101C70004B68002B06DC0B6C002B03DC0020FEBC49
:101C800002BC0847E76A002FF8D000232E682B60BB
:101C900080235B011A4035D0606DA3895B0706D5B0
:101CA0006368C01A636B002B01D0236CC01A02005A
:101CB000216A00232800E76A00F065F8A189431C27
:101CC00006D12B681D2B32D82D4ADA40D3072ED5EA
:101CD0000023636023692360CB0405D5431C02D134
:101CE0002B68002B00D16065616B2E600029C5D088
:101CF00023004433994202D0280000F0C9F90020A3
:101D00006063BCE70123216A280000F03CF8431C13
:101D1000C3D12B68002BC0D01D2B01D0162B01D1B5
:101D20002E60ABE74023A2891343A381A7E740239A
:101D30000B430120A3814042A1E70F69002F9DD0F2
:101D40000B68DB1B01930F600023920700D14B69E6
:101D5000A360019B002B00DC90E7019B3A00216A05
:101D60002800A66A00F00EF8002803DC4023A289B0
:101D70001343DEE7019B1B1A3F180193E9E7C046B6
:101D800001004020304738470B6970B505000C0052
:101D9000002B03D1002070BC02BC0847002804D0EF
:101DA0008369002B01D100F065F80B4B9C4209D1EF
:101DB0006C680C22A35E002BECD021002800FFF7FA
:101DC00051FFE8E7054B9C4201D1AC68F1E7044BB9
:101DD0009C42EED1EC68ECE77410051094100510ED
:101DE0005410051010B5034900F0BCF810BC01BC3C
:101DF0000047C046891D0410002310B5040003608D
:101E00004360836081814366C28103614361836172
:101E1000190008225C30FFF7C3FD064B6362064BD6
:101E2000A362064BE362064B2462236310BC01BC31
:101E30000047C046E12704100D280410492804106B
:101E40007928041070B568254A1E55430E002900F4
:101E5000743100F069F9041E08D000212A000160E5
:101E600046600C30A0606832FFF79AFD200070BC1D
:101E700002BC0847836913B50400002B28D1836492
:101E8000C3640365144B154A1B6882620193984230
:101E900001D101238361200000F022F8606020005E
:101EA00000F01EF8A060200000F01AF80022E060A8
:101EB00004216068FFF7A0FF01220921A068FFF755
:101EC0009BFF02221221E068FFF796FF0123A36126
:101ED00013BC01BC0047C04650100510E51D04109E
:101EE000F8B51F4B1E68B3690700002B02D1300004
:101EF000FFF7C0FF4836B4687368013B04D5336808
:101F0000002B07D03668F6E70C22A55E002D0FD017
:101F10006834F2E704213800FFF794FF30600028AE
:101F2000F0D10C2304003B602000F8BC02BC084741
:101F3000012320005B42E3810233A38165662560B3
:101F4000A560656025616561A561082229005C3096
:101F5000FFF726FD6563A563A564E564E4E7C04675
:101F600050100510F7B50400070000260191483411
:101F7000002C03D13000FEBC02BC08476368A56892
:101F80000093009B013B009301D52468F0E7AB89E7
:101F9000012B09D90E22AB5E013305D02900380090
:101FA000019B00F003F806436835EAE71847000094
:101FB00070B50E001D000E23C95E90B014000029FC
:101FC00007DA00232B60B3891B0611D48023DB00C2
:101FD0000FE001AA00F082FC0028F2DBF022029B55
:101FE00012021340064A9B185A4253412B60EDE7F8
:101FF00040230020236010B070BC02BC0847C046DC
:1020000000E0FFFFF7B502268B8905000C00334284
:1020100008D0230047332360236101236361F7BCA9
:1020200001BC004701AB6A46FFF7C2FF00990700F9
:10203000280000F079F8002808D10C22A35E9A0548
:10204000EDD4032293431E43A681E2E70F4BAB621C
:102050008023A2891343A381009B6361019B2060BD
:102060002061002B0DD00E23E15E280000F04AFC19
:10207000002806D00322A38993431A0001231343A7
:10208000A381A0893843A081C9E7C046E51D04109B
:1020900070B50500002910D00C1F2368002B00DA52
:1020A000E418280000F064FC1E4A1368002B07D1D6
:1020B00063601460280000F05CFC70BC01BC004749
:1020C000A34209D9216860188342F1D118684118E8
:1020D00021605B68ECE713005A68002A01D0A24235
:1020E000F9D919685818A0420BD120680918581856
:1020F00019608242DED110685268411819605A6036
:10210000D8E7A04202D90C232B60D3E721686018DE
:10211000824203D1106841182160526862605C609D
:10212000C8E7C0464C170020032370B5CD1C9D4363
:10213000083506000C2D1ED20C25A9421DD83000F2
:1021400000F016FC264A1468210000291BD1254CFA
:102150002368002B03D1300000F02EFB2060290003
:10216000300000F029FB431C2ED10C2330003360DB
:1021700000F0FFFB03E0002DDFDA0C2333600020CA
:1021800070BC02BC08470B685B1B1AD40B2B03D92D
:102190000B60CC18256003E08C420ED1636813609D
:1021A000300000F0E6FB200007220B30231D904397
:1021B000C31AE5D05A42E250E2E74B6863600C0074
:1021C000EEE70C004968C0E70323C41C9C43A0420F
:1021D000E0D0211A300000F0EFFA431CDAD1C4E756
:1021E0004C170020501700209368013B10B59360F6
:1021F000002B06DA9469A3420CDB0B061B0E0A2B9C
:1022000008D01368581C106008061970000E10BC26
:1022100002BC0847FFF754FCF9E7F8B506000F00C9
:102220001400D518AC4201D1002007E021783A0013
:102230003000FFF7D9FF0134431CF3D1F8BC02BCD6
:1022400008470000F0B59FB006000F00140005938A
:10225000002804D08369002B01D1FFF70BFE834BCC
:102260009F425ED17768BB891B0764D53B69002B11
:1022700061D0002306AD6B6120336B761033AB76F3
:102280000294029C2378002B61D1029BE31A0493F1
:102290000DD0049B029A39003000FFF7BEFF431CAB
:1022A00000D1D4E06A699446049B63446B6123784F
:1022B000002B00D1CBE00122002352426A6002A928
:1022C000543252182B60EB60AB601370AB65013475
:1022D00021780522664800F03FFB631C9C460028DD
:1022E00039D12968CB0604D5532302AA20309B1884
:1022F00018700B0704D553232B2002AA9B181870C3
:1023000023782A2B30D0099B00209C460A21227872
:10231000303A092A00D86EE000282DD06346099390
:102320002AE0544B9F4201D1B7689CE7524B9F4231
:1023300099D1F76897E739003000FFF71BFC0028B8
:1023400097D0012040421FB0F0BC02BC0847252BAB
:102350009BD0013496E7464BC01A0123834029687D
:102360000B432B606446B3E7059B181D1B68059063
:10237000002B3ADB0993644623782E2B0BD163782C
:10238000621C2A2B41D1059B1A1D1B680234059241
:10239000002B37DB079321780322384800F0DCFA62
:1023A000002807D0354BC01A402383402A681343C6
:1023B0002B6001342178631C062231480293297670
:1023C00000F0CAFA002848D02E4B002B33D12968E0
:1023D000059B0722C9052CD59B1893430833059309
:1023E0006B69039A9B186B614BE75B42EB600223BE
:1023F0000B432B60BFE763464B439B189C4601345D
:10240000012084E701235B42C4E7002314009C46BB
:102410000A206B6021783039092903D9002BBAD002
:102420006346B7E76246424353189C460134012392
:10243000F0E70733D1E705AB00933A00124B2900D0
:10244000300000E000BF0390039B0133C8D1BB897B
:102450005B0600D575E70B9875E705AB00933A006E
:10246000094B2900300000F085F8ECE774100510E6
:10247000B41005109410051054100510BA10051072
:10248000BE100510000000001B220410F7B5150057
:1024900001938A680B6900900C00934200DA1300E4
:1024A00022002B6043321278002A01D001332B60C6
:1024B00023689B0602D52B6802332B60062723680E
:1024C0001F4028D0230043331B785A1E93412268B3
:1024D000920634D42200019943320098089E00F0FD
:1024E00047F8431C26D0062320682A68E168034089
:1024F0000025042B03D18D1AEB43DB171D40A36885
:102500002269934201DD9B1AED180027BD4223D1B9
:10251000002011E00137E3682A689B1A9F42D1DA54
:1025200022000123193201990098089E00F020F83A
:10253000431CEFD101204042FEBC02BC08473020C2
:10254000E1184331087021005A1C45310978A2185E
:10255000433202331170BDE7220001231A32019980
:102560000098089E00F004F8431CE3D00137CDE743
:1025700030470000F0B58BB006920A004332079353
:10258000059004920A7E0C00109B6E2A00D191E007
:1025900017D8632A2CD008D8002A00D19BE0582AEB
:1025A00055D026004236327029E0642A01D0692ACB
:1025B000F7D121681A68080623D5111D196015681E
:1025C00025E0732A00D18AE008D86F2A29D0702A22
:1025D000E7D1202209680A43226003E0752A20D04F
:1025E000782ADED122007821453211706F4A31E01D
:1025F0000E001A68111D19601368423633700123EA
:102600007BE04906D9D5111D19600023D55E002D48
:1026100003DA2D23049A13706D42654B0A27039346
:1026200030E020681968050603D5081D18600D689C
:1026300006E04006F9D50D68081D2D0418602D0C24
:102640005B4B082703936F2A18D00A2716E0453101
:102650000A70574A03921A68101D2168186015689D
:10266000080622D5CB0702D5202319432160102765
:10267000002D03D1202322689A43226023000022E8
:1026800043331A706368A360002B5FDB0422216868
:1026900091432160002D5BD1049E002B67D0260062
:1026A000039B1B784236337061E04806DAD52D046F
:1026B0002D0CD7E709681A68080605D5111D1960A1
:1026C000136862691A6006E04906F7D5111D1960A2
:1026D0001368A28A1A800023049E236156E01A68B8
:1026E000111D1960166800216268300000F034F98D
:1026F000002801D0801B6060636823610023049A76
:10270000137043E02369320006990598079D00F095
:1027100051F8431C44D0236800259B0710D4099B23
:10272000E06898423EDA18003CE0220001231932AA
:1027300006990598079E00F03EF8431C30D00135FD
:10274000E368099A9B1A9D42EFDBE8E7002DA6D0CB
:10275000049E28003900FDF77FFD039B5B5C013E72
:10276000280033703900FDF7F9FC051EF1D1082F60
:1027700009D12368DB0706D563682269934202DC2E
:102780003023013E3370049B9B1B2361079B09AAE6
:1027900000932100069B0598FFF778FE431CB1D1FA
:1027A000012040420BB0F0BC02BC0847D610051017
:1027B000C510051028473047002370B5074C0500A9
:1027C00008002360FEF7FEFC431C03D12368002BA6
:1027D00000D02B6070BC02BC0847C046BC1700206C
:1027E00070B50C000E25495F00F0C4F8002805DB29
:1027F000636D1B18636570BC02BC0847A389024A5D
:102800001340A381F7E7C046FFEFFFFFF8B51F00B5
:102810008B8905000C001600DB0505D50E23C95E6B
:102820000022022300F082F8A389064A1340A38104
:1028300032000E23E15E28003B0000F025F8F8BCD2
:1028400002BC0847FFEFFFFF70B50C000E25495F83
:1028500000F06CF8A389421C05D1064A1340A381FD
:1028600070BC02BC0847802252011343A3816065FB
:10287000F6E7C046FFEFFFFF10B50E23C95E00F07C
:1028800019F810BC02BC084770B50500080011001B
:102890000022074C22601A00FEF7BEFC431C03D145
:1028A0002368002B00D02B6070BC02BC0847C046D8
:1028B000BC170020002370B5074C050008002360FA
:1028C000FEF79EFC431C03D12368002B00D02B6035
:1028D00070BC02BC0847C046BC170020002370B57E
:1028E000074C0500080011002360FEF78CFC431C18
:1028F00003D12368002B00D02B6070BC02BC0847BA
:10290000BC170020002370B5074C050008002360A9
:10291000FEF77EFC431C03D12368002B00D02B6004
:1029200070BC02BC0847C046BC17002070B505004B
:10293000080011000022074C22601A00FEF76AFC12
:10294000431C03D12368002B00D02B6070BC02BC59
:102950000847C046BC1700200906090E821890429D
:1029600001D10020704703788B42FBD00130F6E79D
:102970007047704770B50500080011000022074C31
:1029800022601A00FEF756FC431C03D12368002B7B
:1029900000D02B6070BC02BC0847C046BC170020AA
:1029A000F0B5054600200F46079E059C174309D049
:1029B000202905D30127BF03BA4201D8914201D98A
:1029C0004220F0BD194621430AD09C42F8D3094960
:1029D0008C4203D00849A41F8C42F1D2062BEFD3BE
:1029E000002D03D0022D01D0032DE9D1032EE7D80D
:1029F000F0BD0000FFFF00007B0C00007CB5069DD1
:102A0000079C002805D0860705D1460703D4060792
:102A100001D442207CBD002903D0012901D0022924
:102A2000F7D10095019400F05FFA7CBDFFB587B047
:102A3000109D159E169C01930295009407A807C847
:102A40001F463346FFF7ACFF00280ED113981499A8
:102A500003AA069443C2119812990190009502911D
:102A600007A807C83B4600F09DFB0BB0F0BD10B5B2
:102A700001F0D6FD10BD10B502F0DAFD10BD00006A
:102A800010B503F03FF81E4C47212068490141185A
:102A9000097B002909D1A0300079C00729D002F0B4
:102AA000CDFE02F07DFE0BF0C1F800F003F92068C6
:102AB000014640310A78C9798A4319D13E21095C1F
:102AC000002915D10F490A88120711D50922D2060B
:102AD0001269497A836AC900591809231B02C01870
:102AE000806D801A00020012814201DA08F064FA57
:102AF00010BD00F037FB01F02DFC09F083F9D0E7A1
:102B000008180020C000002010B5837F0122002497
:102B100092024168082B03D94224914202D310E06B
:102B2000914201D242240CE0014634220648FDF7CE
:102B30001EFC00F07FF8002801DA482401E000F0D4
:102B400029F9204610BD0000CC0200203EB5174DEB
:102B500015482968827F0846A0310A730024603036
:102B6000047644768476E122C276802202770222BD
:102B70004277302008704C7002AA01A96846FDF720
:102B8000E5FB68460078A22201016846007A891CAC
:102B9000000201436846007900030143286811528E
:102BA000A03004713EBD0000CC02002008180020B7
:102BB00070B502F08BFF07F091FD06F085FC0BF07D
:102BC00055FE03F059F9184C18492068184D401863
:102BD000811001202A68C0021018C1666168890846
:102BE0000167A168890841670AF010FA1D20296869
:102BF0008001228B08180287628B4287A28B428653
:102C0000628C82862046203002783B2040010818E2
:102C100082750021017000F065FA02F0CFFD02F02C
:102C200057FD0BF089F870BDCC0200200000FCEFCE
:102C30000818002070B50025ED4302F0FCFD0128C6
:102C40002ED0002318490322888BFF24401E1043F6
:102C50008A7F4D3462438218088B282460431218FF
:102C6000488B3024604312180846203040782C24CA
:102C7000604310180D4A181884184869A0420DD1F5
:102C80000B4884420AD90D6902F0D5FDC1B228462D
:102C900005F09EF905F0CCFA401B251A284670BDB8
:102CA000FF23B533CEE70000CC0200203919000025
:102CB000580A0000F8B52C4F3C68206E5C34401C6C
:102CC000002814D0002529480023C07B00283ED0CE
:102CD0000926F6062648002D1CD000210A460B4680
:102CE0004169521C994204D1002902D004E0012517
:102CF000E9E7204B9A42F2D32160006960603069B5
:102D0000A1680002090E000A09060143A16000F053
:102D100033F81DE03169A2680902090A150E08D0CE
:102D2000018BC90712D04169216000696060E372BC
:102D300010E0881A00027D2300121B03984205DD73
:102D4000100E00060843A06000F016F8F8BD63609E
:102D5000002DFBD003CC08F05FF8FA2008F04CF807
:102D600039688862F8BD000008180020EC020020D5
:102D7000000010488813000004490020086104483E
:102D8000012100686030C1717047000000001048E8
:102D900008180020F8B5062632484025056032485C
:102DA00000270780A9050920C00641602F4A9160CD
:102DB000016801602E48032104694269601E0843CE
:102DC0003946401CFDF7D7FA02F035FDC1B2204666
:102DD00005F0FEF805F02CFA05F036FA04F0D8FA02
:102DE000244917208881244C2068421901465770D5
:102DF000FA2088622820107002F01BFD012805D1FE
:102E00002068102240300178114301700AF0F4FE6E
:102E1000012805D1206880224030017811430170DB
:102E20002068014640300278324302700020C043DF
:102E30000866FDF7F5FFFFF789FEFFF7B9FE20688A
:102E400001212030017707214177012002F0F0FBBA
:102E500004F002FBFFF72EFF0248803805600221D4
:102E60000160F8BD80E100E0C000002040000048A3
:102E7000CC020020000010480818002038B5184A7D
:102E800014682246BA32AE34A378DD0701D0012996
:102E90000AD05B070CD501290AD0217949070BD547
:102EA000E17A002905D007E0E07880210843E0704E
:102EB00038BD0121E172508020794106090FF7D019
:102EC0007821084069460870002048706A4602214F
:102ED000422000F0A9FA207987210840207138BDEE
:102EE0000818002070470000FFB50C4678A103C900
:102EF00095B001910090002108A801730321C90237
:102F000068464186012108A8734E0174356817464A
:102F1000AE350DF00DFD002808D17049306840181D
:102F200006F0B4FDA878002802D0462019B0F0BD04
:102F30000BA8159900F052F90028F7D1072010A925
:102F40000871012C05D0022C0AD0002C0ED0422092
:102F5000ECE708A8017B1020014308A8017305E0F5
:102F600011A90BA800F049F90028DFD110A80279B7
:102F700001230CA9284601F0CDF800287ED10222B9
:102F800029461898FDF7F3F92988684681811521AB
:102F9000490201820784012686734E2108A88170A8
:102FA0000024C470067107214171867103A902A82B
:102FB00000F06AFE002861D1022202A91E98FDF7E6
:102FC000D6F9082F02D26846478502E008206946F4
:102FD000488569460C850B4628880AAA098901F0AC
:102FE000C3FD00286DD13E4968460182022707844F
:102FF00008A8847103A902A800F046FE002860D149
:10300000022202A91F98FDF7B2F9684604706946CA
:1030100044704F850B4628880AAA098901F0A4FD4F
:1030200000284ED108A8007BC00723D02C49684651
:10303000C91C01820821018408A88770047103A9B2
:1030400002A800F021FE00283BD1FF216846C17193
:103050008171C17081704170017044710471694661
:10306000082048850B4628880AAA098901F07CFDBA
:10307000002826D108A8007B800600E021E022D5A8
:103080002988684681811649A531018206848673A4
:1030900008A88770C470047107214171847103A965
:1030A00002A800F0F1FD00280BD169460E700C85D6
:1030B0004E850B4628880AAA098901F055FD00288B
:1030C00001D0472032E708A8007BA87000202DE738
:1030D000626C75656E72672108180020DE060000BC
:1030E000012A0000034800210068AE30C1708170E1
:1030F000704700000818002038B502461748012420
:103100000068AE30022A1FD0052A03D0072A07D054
:103110000B2A20D1084609794088FFF7AFFE1AE054
:1031200000790024020600D50124820703D1C206DB
:1031300001D480060FD5084600216A461170694601
:1031400000F05EF8044606E08178490703D501796E
:10315000FB2211400171204638BD000008180020F4
:10316000704700001FB50E480468AE34E0780106D1
:1031700012D5A178C9070CD0800708D5042069466C
:103180000873684602F09AFD022000F025F900203D
:10319000E0704006400EE07000F02EF81FBD000009
:1031A00008180020F0B58DB00C4616A9E0C9002122
:1031B000089109910A910B911599049105A9E0C113
:1031C00012A962C900930191134601460396029524
:1031D0002246012000F046F80DB0F0BD0A07920F1C
:1031E00001D0422070478A07FBD002788907890FF7
:1031F0000A43027000207047704742207047000069
:1032000030B5174B047A1B68C268AE331B799D0634
:10321000AD0F04D10078042801D000200BE001207C
:1032200030BD401CC0B2155C012D08D01518203DE2
:10323000ED7F2818C0B2A042F3D3087830BD401CFF
:10324000DD070124C0B2002D02D0105CC00703E0EE
:103250009B07F2D5105C80070028EED00C70ECE7DD
:1032600008180020FFB595B00E46054620210CA891
:10327000FDF7F9FF00200490564800270468681EF7
:10328000AE34042802D8A078C0070BD0062D02D097
:10329000002D0AD002E0A078800703D5E078400630
:1032A000800E0AD0462019B0F0BDA0788007F9D072
:1032B000E0784006800EF5D00FE0002D0DD0012DF6
:1032C00020D0022D28D0062D33D0032D33D0042D4D
:1032D00037D0002E3BD04220E5E7002007F078F8F9
:1032E0000028E0D1E078800708D5042069460873FB
:1032F000684602F0E3FC022000F06EF80120E07066
:103300000020D0E7012EE6D0042EE4D01F9800283C
:10331000E1D10627042008E0012EDCD0042EDAD00B
:103320001F980028D7D105270220E07001200490C3
:1033300010E040200DE0022E01D0032ECBD108205A
:1033400007E0012E01D0042EC5D1102001E0042792
:103350002020E07000230BAA19461E9806F0F8F909
:10336000030002D000F0E0F832E01022002107A8AC
:10337000FDF701F807A86C46279B269A1F990FC4F2
:103380002B463046189A179900F088F80300E9D1C7
:1033900008A8017BC170259803AC049B289A299941
:1033A0000FC422AB07CB02920091019039460CA8C2
:1033B000209B219A00F0C2F80300D3D107A807F0A0
:1033C0001BFB0300CED1012007F002F80300C9D196
:1033D000184668E70818002010B50446C1061148D1
:1033E000006803D51522BF210C4006E01B2189018E
:1033F0004118497EC90710D012222107890E0818EA
:103400001121C9014018C06F002321460AF0E0FCD9
:10341000010004D020460AF0C7FC002010BD0720A0
:1034200010BD000008180020F8B5891ECDB2064670
:10343000A81C03210843401C83081748174600684E
:10344000F10603D51C22BF210E4008E01B21890193
:103450004118497E090601D40020F8BD1922310720
:10346000890E08181121C9014018C06F31460AF0B1
:10347000AFFC04000ED03978217179786171A571A3
:103480002A46B91CE01DFCF772FF214630460AF0BF
:103490008BFCE1E70720F8BD08180020F8B5204BA9
:1034A000204D1B6801265B19069CB603009300287B
:1034B00014D0042812D0022813D0032811D00625D6
:1034C0002B46012810D00F4617430DD0914203D848
:1034D000202901D3B2420AD94220F8BD3025602309
:1034E000EFE7A025F023ECE72580638001E0218051
:1034F000628020710798A0710898207209980028AE
:1035000005D00146204606220930FCF730FF07208F
:10351000607100982030807B60710020F8BD000051
:103520000818002008090000034881220068A03024
:10353000417C11404174704708180020F8B50546D9
:103540003D481E460068079F0024AE301346002900
:1035500005D002222A7001226A70A9700324002E6D
:1035600010D080788006800F0CD13019401C1F28A5
:1035700052D82E55641C281932461946FCF7F7FE1E
:10358000A019C4B2002F0DD03819401C1F2843D8F1
:103590002F55641CE4B228193A460699FCF7E7FE59
:1035A000E019C4B26846008C00281BD06846808CA5
:1035B000002817D0601D1F282ED805202855641C10
:1035C000E0B212212954401CC4B228190646022236
:1035D00008A9FCF7CCFEB01C022209A9FCF7C7FE23
:1035E000241DE4B20C98002810D0E01C1F2813D82A
:1035F00002202855641CE0B20A212954401CC0B2A4
:103600002918401CC4B2084607F0BCFB0B980028E0
:103610000CD000191F2801D94220F8BD28190B9A97
:103620000A99FCF7A4FE0B982018C4B2214628463C
:1036300007F03EF9F8BD00000818002010B50D494C
:1036400000050B680521490259188A690021000DFF
:10365000A0331B7B0AE04C01145B2405240D84423B
:1036600002D14801801810BD491CC9B28B42F2D862
:10367000002010BD08180020F8B5069C1F4615460E
:103680000646002C13D0A06802220D30FCF76FFE16
:10369000E81E82B23B460721204605F0A3FFE580E5
:1036A000A068012E05D01D2101730020F8BD472020
:1036B000F8BD1B21F8E70000F1B5FFB08BB0012485
:1036C000600205900027CC4807970168E320C000FE
:1036D000081803908A98C74D0005000D0AAA05A98D
:1036E00008F007F90690002872D104260AA8059967
:1036F0004218203AD27F0B2A23D0002600200490C3
:103700000AA88119022201A80291FCF730FE68463E
:10371000818809AB08AA039801F020FC012817D082
:1037200002287DD068468088854200D305468442C1
:1037300000D92046044602988078012871D01336BB
:103740003BE1491E761E36040591360CCFD1D5E7F4
:1037500008980090002F79D1009902222831029810
:10376000FCF70DFE00281ED100982030017B029846
:103770008078814217D1012808D10098029902224D
:103780000830C91CFCF7FBFD002815D00298807892
:10379000022808D10098029910220830C91CFCF7B1
:1037A000EEFD002808D00098008DA84200D80546FC
:1037B000A04200D22046044602990AA8897801292D
:1037C00007D013360599B6B28E4204D3012707E01D
:1037D00005E1761DF6E78119022201A8FCF7C7FD75
:1037E0000399009808318E462EE084466946026AA5
:1037F0008B8820300DE0918B994203D3012F7DD12E
:1038000099427BD9A94200D80D46A14200D30C466B
:1038100012688242EFD10498002817D1604601E077
:1038200015E0BFE0006870450ED0018D994203D3CA
:10383000012F09D1994207D98D4200D30D468C4200
:1038400000D80C46012F59D17045CED1BAE0089866
:103850000090002F72D1009902221C310298FCF7CF
:103860008EFD00281ED100982030C1780298807803
:10387000814217D1012808D100980299022208300C
:10388000C91CFCF77CFD00281AD002988078022819
:1038900008D10098029910220830C91CFCF76FFD6E
:1038A00000280DD00098808BA84200D80546A04281
:1038B00000D22046044602988078012826D003E0F2
:1038C00002988078012805D013360798B6B20128EF
:1038D0001ED021E0009849490089884216D18A9873
:1038E000FFF7ACFE0146009800F08AF80099098CB9
:1038F0004843009989694018022200E038E00299A3
:10390000491DFCF734FD01200790D4E7761DDCE764
:10391000B61C0020B6B207900598864201D3012755
:1039200005E00AA88119022201A8FCF720FD039AEC
:103930000099083209980968944630E01AE08646F2
:103940006A46938820300DE08A8B9A4203D3012F78
:103950000ED19A420CD9AA4200D81546A24200D3F1
:10396000144609688142EFD1049800282AD102E068
:103970000120049026E07046006860450FD0028D5B
:10398000016A9A4203D3012F09D19A4207D995427D
:1039900000D31546944200D81446012FE8D1604563
:1039A000CDD10FE00298C078022805D102980079A5
:1039B000292801D1B61CB6B2761D0598B6B286424A
:1039C00000D301270598811B042902D3864200D227
:1039D00094E604980028FBD1A54203D906987FB04D
:1039E0000CB0F0BD224629468A9801F0FBFA0690F9
:1039F000F5E70000FFFF0000081800200229000082
:103A000030B5024623239B5C0020012B1AD112897A
:103A10000D4B9A4216D10D4A052312685B02D3184A
:103A2000A0329B69127B0AE045010C885D5B24058E
:103A30002D05240D2D0DAC4204D0401CC0B2824295
:103A4000F2D8002030BD0000022900000818002034
:103A5000830810B50A4800210268052040021018AA
:103A6000A0328069127B07E04C01045B002C01D07E
:103A7000994204D0491CC9B28A42F5D8002010BD31
:103A80000818002010B50446022000F033F80D4855
:103A900000210268052040021018A0328369107BC3
:103AA00005E04A019A5A002A04D0491CC9B288424A
:103AB000F7D810BD48011C52C018026904210A43FE
:103AC000026110BD0818002010B50446014604200C
:103AD00002F0F4FA002809D00548E3210068C90083
:103AE000401821463C300AF0DBFF432010BD0000A7
:103AF0000818002004490A683B21490151180A7836
:103B000002430A70704700000818002000B5113801
:103B1000C0B2FFF79DFF002804D0012201695205C1
:103B20001143016100BD0000F3B597B00D884888CE
:103B30000590081D1DC80DAE1DC68C8ACE8A087E54
:103B40001390C8692031019008780090487804905B
:103B500088780390C87802900F7900F047FD00281C
:103B600017D10120400284425FD8B4425DD8002FB3
:103B700001D1B44259D114A9284601F01DFA0028F8
:103B800006D115AA1499059801F006FA002802D06A
:103B9000602019B0F0BD149D11A92846183005F019
:103BA000C9FF10A88088002810D0284612A920300C
:103BB00005F0C0FF10A8838800892A8D1818696A4B
:103BC00010188A8B904203D16120E2E74820E0E799
:103BD00015982C4B02899A4227D12322125C012A84
:103BE00023D1006800681690139801281FD16846F9
:103BF000808E29221202801A030001F0D2FC0604F2
:103C0000180404070A18022C0FD110E0072C0CD15D
:103C10000DE0042C09D3E00707D1012F07D1A642FC
:103C200003D3042E01D3F00701D04220B1E702985C
:103C30000B90039B049A0A9309920098019A0C979F
:103C400008900696059407920DA81DC8019002A839
:103C50001CC013980B4600902A461699179800F03E
:103C6000AFF9002895D168460649808EFF31884219
:103C700005D01798018800200A4601F0B3F900200A
:103C800087E7000003280000F3B5A5B008881A9064
:103C900088780C4611901022091D13A8FDF7DBFA55
:103CA000A08A1090A17D68460172E07D0F90207E71
:103CB0002090677EA07E1F9000200646014612904D
:103CC00020A801810F20BB4C2390E3212068C9006C
:103CD0004018199000F08AFC00280BD1012110989F
:103CE000490288425FD821A91A9801F065F9002895
:103CF00002D0602027B0F0BD2198179005F0BEFEDD
:103D00001A9988420CD102A801901698009013AD20
:103D10000ECD119805F07AFE002801D06320E9E766
:103D20006846017A8806800F05D00120129020682D
:103D3000A030007B4600C80703D01298401CB61C78
:103D40001290080603D51298401CB61C12901798C2
:103D50000DA918301D9005F0EDFE6846129C808E6E
:103D6000A41CA04237D317980EA92030019005F06B
:103D7000E1FE6846018F00290DD01798179A6B460F
:103D8000406A9B8E128D5918808B5118081AA042D8
:103D900001D26120AEE7179884691198256801283F
:103DA00003D0022803D04220A4E7052000E013201E
:103DB000E0832A4639460F9805F072FE422899D0D2
:103DC000199FE28B4037788B398B411A1098101865
:103DD0008019814201DA48208CE70EA9019805F08C
:103DE000A9FE6846008F0028179802D0406A808B91
:103DF00000E0008D2599401C08802598012100884D
:103E0000A083259802220088401CA8836A4820814C
:103E1000204620301790C17000218170817119985F
:103E2000398B406D40186946A061097A0170A0691C
:103E300029461C31401CFCF79AFA11980128A06908
:103E40007ED0102213A9C01CFCF791FA284610223C
:103E500013A90830FCF78BFA388B133038832E46C1
:103E600020361198F0701098E8831F98B070109861
:103E70002084109828841998398B406D4018A861C7
:103E80000021109AFCF777FA398B109808183883BC
:103E90001799012008711799002048713071684600
:103EA000007A810701D5012131710107022700291C
:103EB00002DA317939433171410703D5317904226E
:103EC00011433171400603D5307908210843307120
:103ED0000F9870712098B07121461D9805F053FE1F
:103EE0002146019805F030FE29461D9805F04BFE4D
:103EF0002946019805F028FE1298002841D068460E
:103F00001A998181A18BC18107844784012408A863
:103F1000047122A80A9008A88473239941730F9909
:103F20003820014008A801730721C17300250574DA
:103F30006846007AC00708D020486946088200E039
:103F40002AE003A924A8FFF7EFFD6846007A80065F
:103F5000800F07D019486946401E088203A924A88B
:103F6000FFF7E2FD6846007A00060AD5292109021A
:103F70006846018208A84473057303A924A8FFF7C3
:103F8000D3FD259801881298401C081882B20020A1
:103F900001F028F80020ADE6022213A9C01CFCF7AE
:103FA000E6F92846022213A90830FCF7E0F9388B1D
:103FB000401D53E7081800200328000003290000D3
:103FC000FFB55248E322006887B0D20082180692FB
:103FD00010AA109B0126169F9288012B04D14C4BEE
:103FE0009A4201D1A030067B069D34464035688B4D
:103FF0002B8B7C43C31A099820300390A34222DA0A
:1040000048200BB0F0BD2320405C012819D108895D
:104010006C46208098420CD03D4C641EA04208D0D3
:10402000641CA04205D0641CA04202D0A41CA04283
:1040300007D1374CFF3CA04201D0904201D1622011
:10404000DFE7096801E029231B0203988142DAD1E6
:1040500009981B9984691898224605F021FD422889
:10406000CFD01C98012804D11598874201D2422054
:10407000C7E71598E083204620301C990590817091
:1040800027840A98808B401CA0831098012814D0A4
:104090002046102211A90830FCF769F905991098FB
:1040A000C8700698298B406D4018A061298B38464E
:1040B00070430818288300250FE011A80FC80834A2
:1040C0000FC4183CEAE72846A16978430818159AF6
:1040D0001799FCF74CF96D1CEDB2B542F3D3059975
:1040E0001898487105991998087105991A98887156
:1040F00009982146183005F046FD2146039805F041
:1041000023FD0798A18B018000207AE70818002082
:1041100002290000FFB58FB014460E78102205A8C2
:10412000891CFDF798F85048E3210068C90045183C
:1041300000F05CFA00281ED1002C57D0012E09D1C6
:104140006846808A4949884204D12846A9680830CF
:1041500081424BD12846103029690390814209D011
:104160000AA9284605F0E6FC6846018D601E0D9000
:10417000814202D2482013B0F0BD284608300CA975
:10418000049005F0D7FC6846008E002814D0EF6834
:104190000AA93846183005F0CDFC384620300CA965
:1041A00005F0C8FC6846398D008D09186846008EF8
:1041B000401C081887B200E0012701200004C01B42
:1041C000A04201D26120D6E72C692868019012989C
:1041D000012802D0022803D008E00520C00200E038
:1041E00023486085012E03D0022E05D04220C2E76D
:1041F00020460830022202E020460830102205A99D
:10420000FCF7B5F8204631462030064601730F987A
:10421000214607802785039805F0B5FC21460498C0
:1042200005F092FC27461837E7616662A7612662AF
:104230000D9884B20BE02846019905F0A4FC38469D
:10424000019905F081FC2868641EA4B20190002C3D
:10425000F1D10F9801880D98081882B2002000F063
:10426000C1FE002087E700000818002001180000A8
:104270000128000002460948E3210068C9004118EE
:104280008868083103E0038D934202D200688842B7
:10429000F9D1884200D100207047000008180020A2
:1042A000034610B50F48E3210068C900411888682B
:1042B000083103E0148D9C4203D8104602688A42FC
:1042C000F8D18A420CD1018D994209D20146026A85
:1042D00020318A4203D0416A898B994200D2002062
:1042E00010BD000008180020024610B50B4812054A
:1042F000016805204002081883690020120DA031D2
:10430000097B07E044011C5B2405240D944203D083
:10431000401CC0B28142F5D810BD00000818002032
:10432000F7B50546174601980AF08AFB2E050446A4
:10433000360D0CE0A0882568B04207D121460198CF
:104340000AF0CBFB3946204605F0F8F82C46002C45
:10435000F0D1FEBDF0B58BB0002064490290E3209F
:104360000A68C000141872B610464030C57902239E
:104370001D43C57162B625464035287AC0077DD0F9
:10438000052040021018002687694AE071017A5A18
:10439000002A44D0C919069109694A021FD48A0229
:1043A00027D5022104910699012309880905090DE1
:1043B00003911B2189014118C97E89070FD511215D
:1043C000C901083040182322C06F022109F000FD06
:1043D000010004D0039A8A80049809F0E5FC06984D
:1043E00000880090069800F083F8009808F0FFFD20
:1043F00015E0480713D5069800880005000D08F061
:10440000D2FD002805D1069800880005000DFFF7B1
:1044100053F9069904200969814306980161761CC5
:10442000F6B23248AC210068095CB142AED800F067
:1044300001FF2046243006460AF048FB012802D03E
:10444000012000F0F9FD204618300AF03FFB01285A
:1044500002D0002000F0F0FD3C3420460AF036FB8C
:1044600001280FD002A920460AF059FB0420029926
:1044700001F024FE0028F0D0204600E034E002994C
:104480000AF0FBFA287A00062ED530460AF01EFB09
:10449000012829D1002004F0D1FFA98B233149093B
:1044A000491CC9B2FBF7D8FE00281DD00F4D0446A9
:1044B00028681121C90108304018422601233822FA
:1044C000C06F314609F084FC01000DD000228A80C3
:1044D000CC80304609F068FC3B212A68490151181C
:1044E0000A78802082430A700BB0F0BD08180020C3
:1044F000F0B504463C48E3210068C9004518218A0C
:1045000085B089041AD5022104911B218901411823
:10451000497F412627880123C9070FD01121C901EE
:10452000083040183122C06F022109F051FC01000F
:1045300004D08F808E71049809F036FC29462088BB
:1045400001221831FFF7ECFE294620880122303184
:10455000FFF7E6FE2946208801222431FFF7E0FE1E
:104560002946208800223C31FFF7DAFE208800052A
:10457000000DFFF7B9FE8500294611316846017329
:1045800001F09CFB294612316846017301F096FB4D
:10459000294613316846017301F090FB68461435D3
:1045A000057301F08BFB208800F028FA20880105B4
:1045B0000D48090D0268052040021018828F9142B3
:1045C00001D100218187E069002802D0012104F097
:1045D000B5FF202200212046A568FBF7CCFE17205E
:1045E000A560608005B0F0BD0818002010B50B482C
:1045F000E3210068C90044184034207AC00709D07C
:10460000002004F01BFF217A890701D5002803D080
:10461000002010BD472010BD642010BD08180020E8
:10462000F0B55FA099B000685E491590E322086874
:10463000D20084180522520282189269254640351C
:1046400014922A7AD20702D0622019B0F0BDAA8B48
:1046500001235B029A4201D9AB8303E0172A01D2FE
:104660001722AA83149AA0301392067B0DE0761EBF
:10467000F6B2139871010F18B8680F9038462022CF
:104680000021FBF778FE0F98B860002EEFD120468E
:104690000830E0606460A0602460083013906061BE
:1046A0002061FF22002108300AF0DFF92046FF22B6
:1046B000002124300AF0D9F92046AA7F00213030A9
:1046C0000AF0D3F92046FF2200213C300AF0CDF950
:1046D00000222A7210461721324B05E0149E470132
:1046E000BE19401C7180C0B21E68A036367B86425F
:1046F000F4D8002028832F8C688C0026149008E0C2
:104700002820E16C70430918204605F01DFA761C3C
:10471000B6B2BE42F4D3002608E03020216D7043CB
:104720000918139805F010FA761CB6B21498864250
:10473000F3D30120FFF7DEF90124684604701A491B
:1047400041802346042269460CA8FFF7E3FC0028B9
:1047500022D16846018E8182144901830426068590
:104760008475202108A881720024C4720473072173
:104770004173847305A90DA8FFF786FA00280BD1B1
:10478000684604874687818E15AB0EAA008E00F01E
:10479000EBF9002800D158E700202872472054E7A1
:1047A0000000FFFF0818002001180000052A000083
:1047B000F8B504467D480E460068E321C900471855
:1047C0004820C05DC0077BD0B088FEF737FF0546A4
:1047D000012C02D0002C75D0E6E0002D0CD0286909
:1047E00041074AD4B268F188147B0029F4D06206EC
:1047F0000CD56888884201D20121B2E0D22C01D0C8
:10480000522CF9D13846314618303FE0A106890EC6
:104810001E293ED81E2C21D101071FD5082188430F
:1048200028612988012005F077F90121304604F03C
:1048300085FE5E4811210068C901083040184224F5
:104840002D8801233922C06F214609F0C1FA0100E9
:1048500003D08D80204609F0A7FAA5E0E1070AD031
:104860001D2C10D01B2C0ED0410529D4012189020A
:104870000843EE6192E0C00601D54520F8BD2988C5
:10488000002005F037F93846314624300AF008F99F
:104890008AE029882022002004F0F4FD05000FD0D2
:1048A0000121304604F04AFE2B4600222146062014
:1048B0000AF06AFC2846FFF707F975E000E001E01E
:1048C0004120F8BDB068047B1D2C3AD01B2C41D090
:1048D0000021304604F032FE032C46D0052C44D093
:1048E000072C42D0092C40D00B2C3ED00D2C3CD0B4
:1048F0000F2C3AD0112C38D0132C36D0172C34D0A2
:10490000192C32D0012C30D0022C35D0042C33D0CD
:10491000062C31D0082C2FD00A2C2DD00C2C2BD0CB
:104920000E2C29D0102C27D0122C25D0162C23D0B9
:10493000182C21D0522C1FD0D22C1DD01E2C2FD0A1
:1049400032E0002D03D02988012005F0D3F831464C
:10495000022001E03146012000F05EFD002823D056
:104960000021304604F0EAFD1EE029691020814351
:1049700029612988002015E02869402188432861A1
:10498000010511D5FF210131084328612988022042
:1049900005F0B0F801212869C9028843286103E0C5
:1049A0002988032005F0B8F80020F8BD0818002079
:1049B00010B5114AE3231268DB00D2184032127A94
:1049C000D20706D002280AD0052804D00B2810D11F
:1049D00001E0412010BD4888FFF754F809E04888FD
:1049E000FEF72CFE002804D0012201699205114334
:1049F0000161002010BD000008180020F1B5FFB0D3
:104A000085B0472001900020694608805348E32183
:104A10000068C90047188498FEF710FE029000282D
:104A200074D0B96808374FE0684600880D4604AC7A
:104A300020186B460222283100F0A4FD6846008849
:104A4000294620186B4601222C3100F09BFD2E4692
:104A50002036307B69460128098804A809D040180F
:104A60006B4610222946083100F08CFD01902C6A1B
:104A700027E040186B460222F4E76946098804A83B
:104A8000401821466B4602221C3100F07BFD69462E
:104A9000098804A8401821466B460122233100F002
:104AA00071FD2320005D69460128098804A830D0E3
:104AB000401821466B461022083100F063FD01903A
:104AC0002468B442D9D12968B942ADD101980028EF
:104AD0001CD16846008881070AD0214A011D114077
:104AE0006A4611800A1A04A908180B21FBF743FC37
:104AF0000298008808F057FA002807D18498694680
:104B00000005000D04AA098806F024FE7FB006B057
:104B1000F0BD401821466B460222083100F032FDFC
:104B2000019020890F498842CAD120460299FEF798
:104B300067FF4000A16903906A460918128804A81B
:104B400080186B46022200F01DFD0190A1690398B8
:104B5000022208180021FBF70EFCB1E7081800201C
:104B6000FCFF000002290000F0B5074617480E467A
:104B700000683B2149014018007885B01D46144665
:104B8000C00706D003A9384600F016FA00280AD15B
:104B900002E0472005B0F0BD04AA3046039900F0BA
:104BA000FBF9002801D06020F4E70499228860888E
:104BB0000968002A00D0088C32466E4631C60323AD
:104BC0003946002000F004F8E4E70000081800204F
:104BD000FFB5002099B0239A0B90129005461490CF
:104BE000064615901C46DB480B460068E321C900C9
:104BF000411803910021229F089109915188069143
:104C000011880A913B21490140180078C00706D05D
:104C10000FA9184600F0D0F900280AD102E0472079
:104C20001DB0F0BD10AA0F991B9800F0B5F900282F
:104C300001D06020F4E71998002803D0600701D55F
:104C4000012000E000201390A007800F1C90109816
:104C500017902030C078012840D11798BE4B0189A9
:104C60009942F9D11798069904680A98228C41183C
:104C7000914233D82046203016908078012816D0F3
:104C8000E08B04901798806900788006800F7DD0B3
:104C9000039840301890007A800777D51C98002838
:104CA000F5D0AD4F0F99FF372031206814E0BA429C
:104CB00014D3B942DDD80497E4E70389A64A9342A6
:104CC00003D12322125C012A08D0BB4203D1232244
:104CD000125C012A03D000688842EED134E10590CD
:104CE0000028FBD09B4805210268490251188969B8
:104CF0000027009162E0780100990390085A0105AD
:104D00005AD01999002901D0884255D105997A00C5
:104D10008B69511C595C9A5C0902891889B20D9102
:104D2000890749D0022205990AF0ACFA002804D07C
:104D30001998002840D0652072E7002008A9C855BE
:104D40001C98C00718D0179880690078C00613D542
:104D50000D98C00710D00120C8550543009A03984C
:104D600080184088159A904206D91590009A0398A9
:104D7000105A0005000D14901C9880071CD5179838
:104D800080690078800617D50D9800E084E08007E0
:104D900012D50220CA5D05430243CA550099039803
:104DA000401840881599884206D9159000990398B3
:104DB000085A0005000D14907F1CFFB2654800687A
:104DC000A030037BBB4296D8002D65D01898007A9E
:104DD00000065FD45F480168052040020818816919
:104DE00000201BE042018E5A360515D0AE070BD5C8
:104DF00056183669B7070DD408AF3F5CBF0703D517
:104E0000360701D546200BE7EE0705D05218127C75
:104E1000D20701D0432003E7401CC0B28342E1D84F
:104E20001598C01E86B20498864200D90646A80787
:104E30000FD520220020149904F024FB12900028A2
:104E40007DD0F01C82B20021129800F0EDF800280D
:104E500011D1E80720D020220020149904F012FB81
:104E60000B90002807D0F01C82B200210B9800F0B4
:104E7000DBF8002810D08020FEF73CFE12980028B6
:104E800002D0002104F05AFB0B98002802D0002128
:104E900004F054FB6420C3E6A1690A98069A081836
:104EA0002499FBF764FA16988078012801D10498B8
:104EB000E083002D46D0274B0520196840020818D2
:104EC0008169002008AA0CE04301CF5A3F0506D0B3
:104ED0005F18BC463B69175C3B4367463B61401C1F
:104EE000C0B21C4B1B68A0331B7B8342ECD8A807C5
:104EF0000DD512980090F01C82B221461C31022080
:104F0000A369FEF7B9FB0220129900F085FAE807C1
:104F100018D00B980090F61C2146B2B21C3101202B
:104F2000A369FEF7A9FB1398002805D00B988021F0
:104F3000C07C08430B99C87401200B9900E005E080
:104F400000F06AFA00206BE6422069E68020FEF756
:104F5000D1FD9FE70818002003280000F0B5846801
:104F6000083015E0258D8D4203D1146018600120B2
:104F7000F0BD26461C602036256A06E0AF8B8F42C6
:104F800002D102201560F0BD2D68B542F6D124682B
:104F90008442E7D10020F0BD10B50B6A203106E055
:104FA0009C8B844202D10020136010BD1B688B4291
:104FB000F6D1412010BD000010B5094AE323126864
:104FC000DB00D2189368083206E01C8D844202D1BF
:104FD00000200B6010BD1B689342F6D1412010BD2C
:104FE0000818002030B50F4BE3251B68ED005B1956
:104FF000403304461B7A412085B09B0710D56B4691
:105000009981DA81002018820420588203AA04A919
:105010006D4607C502231A4601212046FFF7D8FD39
:1050200005B030BD0818002010B5121D806892B27E
:1050300004F0A2FA10BD0000F0B57D49E322096832
:10504000D2008E1885B0012806D030461830009066
:1050500009F0F6FC0446E7E030462430039009F0FE
:10506000EFFC0546BCE0A8682F68007B0290A8888A
:10507000FEF7E4FA040073D021882022002004F017
:1050800001FA019000286CD0E8886188884204D930
:1050900000220420019B029920E046200090029803
:1050A0000E284ED00ADC801E030000F07AFA0B1C9A
:1050B00013221329132F13381341130016285AD023
:1050C00004DC102846D0122804D14BE018285BD00D
:1050D0001D2874D000220620019B02990AF054F882
:1050E000002000905CE029462046019A0AF058F919
:1050F0004FE02A4621463046019B0AF07FFB48E0FC
:1051000029462046019A0AF083FA42E0206900030A
:1051100055D429462046019A0AF0BAFE39E02069A2
:1051200000034CD429462046019A0BF0E3F830E006
:105130002069000343D429462046019A0AF016FD4F
:1051400027E0206900033AD429462046019A0BF053
:1051500007F81EE029462046019A0AF0A7FD18E04C
:1051600035E040E02069800329D429462046019A91
:105170000BF0EBF90DE02069800320D4294620468E
:10518000019A0AF037FC04E029462046019A0AF009
:1051900061F90090452812D0692810D046280ED019
:1051A00001212069090688431021084320610198E4
:1051B000FEF78AFC0098002809D010E0FFE70021E4
:1051C000019804F0BBF9009845280CD0F2E7294675
:1051D000039809F082FC0121284604F0AFF93D460E
:1051E000002D00D03FE705B0F0BDA0682668077B22
:1051F000A088FEF723FA05000DD0522F01D0D22F40
:1052000006D1286940030ED4214628460BF007F941
:105210002869400307D42146009809F05EFC01216B
:10522000204604F08BF93446002CDED1DBE7000089
:1052300008180020F0B56348E3220168D2008DB061
:105240008A180C9205225202891800278D69AFE056
:105250007E01A85B002872D070190A90C0690028EE
:1052600066D00A990969CA0532D54A0530D58068E1
:105270000124A402007BA1430A9A1D28116154D085
:105280001B2852D00A9A927B824202D0012802D077
:105290004BE0012806D10A98C0698068407B401C19
:1052A00082424CD1C80509D5A95B022004F034FC28
:1052B0000A98FF2201690132914301610A988169CC
:1052C0008847452831D10A980169214301612CE0C2
:1052D000012104F033F90A990020C8610A980121DC
:1052E000026989028A4302614220019002200890EB
:1052F00005900A98069020681121C90108304018CD
:1053000001232122C06F019908F062FD04000CD036
:105310000899217105996171A01D059A0699FBF7FD
:1053200026F82146019808F03FFDA85B00283DD0F3
:105330000C982430049009F083FB044634E035E0F7
:1053400020680890A068A388017BA85B0205120D65
:105350008446934216D11D2914D10A9800698646C5
:10536000C0040FD40122120371460A98114301614F
:10537000A95B032004F0BEFBA95B2246022000F0DB
:1053800071F808E093420ED11B290CD122466146E8
:10539000022000F0AFF82146049809F09EFB01219D
:1053A000204604F0CBF8089C002CC9D17F1CFFB22A
:1053B000044C2068A030007BB84200D948E70DB00B
:1053C000F0BD000008180020F0B5944600220A80C5
:1053D0006346104C1A60052322685B028646D21889
:1053E0004120926900230FE05D01AD182F697646D8
:1053F000374207D06F880E88B74203D90F806046C6
:10540000056000205B1CDBB22568A0352D7B9D422A
:10541000EAD8F0BD081800207CB50C4605466A465F
:1054200001A9FFF7D1FF002801D041207CBD6846CB
:10543000E1888088814200D9E08000980088A080BF
:105440002046FEF741FB0098012D07D00169082294
:10545000114302229143016100207CBD016949088A
:105460004900F8E7F7B5064690799168C01E82B00A
:105470001746C5B2022268460D31FAF778FF681D5B
:1054800003210843401C83081948F10603D5322242
:10549000BF210E400AE01B22016892018918097F92
:1054A000890602D4002005B0F0BD2F223107006824
:1054B000890E08181121C9014018C06F314608F043
:1054C00087FC040011D00398A08068460088E08023
:1054D000234625722A4607213846093303F092FFF6
:1054E0002146304608F060FCDCE70720DBE70000DF
:1054F00008180020F7B5064690799168C01E82B062
:105500001746C5B2022268460D31FAF730FF681D12
:1055100003210843401C83081948F10603D53322B0
:10552000BF210E400AE01B22016892018918097F01
:10553000490602D4002005B0F0BD302231070068D2
:10554000890E08181121C9014018C06F314608F0B2
:105550003FFC040011D00398A08068460088E080DA
:10556000234625722A4607213846093303F04AFFAD
:105570002146304608F018FCDCE70720DBE7000096
:105580000818002010B51C88A418A4B21C800123A0
:105590005B029C4203D8FAF7EAFE002010BD4120CE
:1055A00010BD30B47446641E2578641CAB4200D232
:1055B0001D46635D5B00E31830BC1847F7B516461F
:1055C00000241CE000981149001940188108019836
:1055D0008900001942780578120215438278C07854
:1055E0001204000602430948154340420F18294699
:1055F0003846FBF7A3FB3868854204D1241DB4422A
:10560000E0D30020FEBDFB20FEBD00000000FCEF4B
:10561000F0B50E460746002407E03D1900F02AF8D1
:105620002870000A6870A41CE4B2B442F5D3F0BD3F
:1056300010B5012818D8072916D80C4A1268134645
:105640002033187759778007C906000E090E0143E9
:105650000020074BA03204E08401E418A172401C32
:10566000C0B2147B8442F7D8002010BD0818002077
:105670000001002000210B200007026852070DD511
:10568000026804239A430260026808231A430260F6
:1056900004E0491C052901DD00207047426892079B
:1056A000F7D54168C907FCD0806880B2704710B553
:1056B000FFF7E0FF0446FFF7DDFF0004201810BDF0
:1056C000024909686831C880002070470818002026
:1056D00010B505486F2300681B0104220021C01883
:1056E000FAF749FE10BD00000818002004E0037816
:1056F0000B70401C491C521E002AF8D17047000054
:105700003EB50B4801AA0468694602A8683400F057
:105710001FF800280BD06846007AE18801228240F9
:10572000114204D069460978019AFCF72FF83EBD72
:105730000818002005480021006868300171417197
:105740000268D208D2000260C180704708180020A9
:1057500070B514460D4A136872B668331A79002A78
:1057600001D0012500E0002500221A715A7902704B
:1057700018784007400F087018684001000A00F0D0
:10578000C9FA206062B6284670BD000008180020E3
:1057900003E00870000A491C521E002AF9D1704724
:1057A00010B501F0E1FE00F043F800F044F80128E4
:1057B00001D101F0DDFE01F0DDFE10BD70B51A4C27
:1057C0001B252068AD0141190026184B0E720622D8
:1057D000FF21C018FAF7CFFD206820214019C673B9
:1057E000017400F028F801281CD01F2021680F4BFD
:1057F000491948742068093307220021C018FAF7B4
:10580000BAFD0A4B206810330522FF21C018FAF7B1
:10581000B2FD064B20681B33FF220021C01809F09F
:1058200024F970BD5F20E1E708180020C9060000D8
:1058300070470020704700207047000070B572B6B6
:10584000184D4023286801464030C2791A43C2717E
:1058500062B6154E881909F039F9002812D1286866
:10586000801909F0EDF804460AE0204609F02CF80A
:10587000002807D128682146801909F02EF92468EC
:10588000002CF2D12868801909F020F9012807D0EE
:1058900072B62868BF224030C1791140C17162B62A
:1058A00070BD000008180020E40600000A4610B58C
:1058B0000146002002F03EFB10BD10B5014600225B
:1058C000412002F037FB10BD10B50A461F2801D950
:1058D000122010BD0146104604F0EAFF10BD10B5BD
:1058E0000A461F2801D9122010BD0146104605F0B6
:1058F0009BF910BDFEB5064602200190B0880090CD
:10590000B5790321681D0843401C83081348112200
:105910000068D40108300019377B0221C06F08F0FD
:1059200057FA040017D00098A0800020A771E071FA
:105930000146234625812A4630460A3303F062FD9C
:105940002146019808F030FA00240121304603F086
:10595000F5FD2046FEBD0724FBE7000008180020E7
:10596000F8B5074685880F4811240068E40108301F
:1059700002260019012310223146C06F08F028FAD0
:1059800001000CD08D8001220024CA80304608F02E
:105990000BFA0021384603F0D1FD2046F8BD07245C
:1059A000FBE7000008180020074A914202DC52423F
:1059B000914200DA1146FF22993251430A125118DE
:1059C0000A14511808187047FFFF4F00401AC01002
:1059D000810040180012704710B50920C006006908
:1059E0000002000A00F096F910BD704730B5EFF3E1
:1059F000108172B60922D2061269FF25821A12029C
:105A000014120C4A91351368AC4208DC01221206CC
:105A100090431A464032D479DF252C40D471C2011C
:105A20000724D20924021B191A61034A906081F3EA
:105A3000108830BD081800204000004810B5030051
:105A4000FFF7AFFD3A332D2D2D1E2130332A2A2AA0
:105A50002A2A2A2A2A2A24242424242424242424E2
:105A600024242424242424242424242424242424F6
:105A700024242424242424272727272727272733BF
:105A8000FDF76EFB10BD03F04FFF10BDFEF73EF8B3
:105A900010BD00F039FB10BD07F02CFB10BD07F066
:105AA000EFFA10BDFDF71EFA10BD3A38C0B2042857
:105AB000FAD2FFF79AFF10BD0348DF22006840309A
:105AC000C1791140C17170470818002070B50B48AA
:105AD0000B49006844182646646008362460E66076
